:100000000C94AF060C94DB060C94DB060C94DB0618
:100010000C94DB060C94DB060C94DB060C94DB06DC
:100020000C94DB060C94DB060C94DB060C94DB06CC
:100030000C94DD060C94DB060C94DB060C94DB06BA
:100040000C94DB060C94DB060C944A110C9478118A
:100050000C94DB060C94DB060C94DB060C94DB069C
:100060000C94DB060C94DB064F4B0A0D00455252F4
:100070004F520A0D00556E7265636F676E697A653F
:100080006420636F6D6D616E640A0D0050494E44CB
:100090003D2538730A0D0050494E433D2538730AFB
:1000A0000D0050494E423D2538730A0D0020202096
:1000B000202037363534333231300A0D0078646908
:1000C0006167000A0D0041565234383820475049C4
:1000D000422D55534220436F6E74726F6C6C657283
:1000E0002056657273696F6E20362E30300076654B
:1000F00072004F4B0A0D004552524F520A0D0074C8
:1001000072670025690A0D007372710073706F6C5D
:100110006C004F4B0A0D00300A0D00736176656369
:100120006667007273740072656164004F4B0A0D5C
:100130000025750A0D00726561645F746D6F5F6DF7
:1001400073004552524F520A0D004F4B0A0D0031B9
:100150000A0D006D6F6465004F4B0A0D0045525249
:100160004F520A0D006C6F63004F4B0A0D00455251
:10017000524F520A0D006C6C6F004F4B0A0D006914
:1001800066630068656C70004F4B0A0D0025690AB4
:100190000D00656F745F656E61626C65004F4B0AA0
:1001A0000D0025690A0D00656F745F636861720058
:1001B0004F4B0A0D0025690A0D00656F73004F4B08
:1001C0000A0D0025690A0D00656F69004F4B0A0D85
:1001D0000025690A0D006563686F006465666175D6
:1001E0006C74004F4B0A0D0025690A0D00646562AE
:1001F0007567004F4B0A0D004552524F520A0D00D1
:10020000636C72004F4B0A0D0025690A0D00617581
:10021000746F004F4B0A0D00496E76616C69642063
:10022000696E737472756D656E7420616464726555
:1002300073730A0D0025690A0D006164647200522F
:1002400065737461727420627920706F7765722DA6
:100250006F6E2E0A0D00526573746172742062799C
:100260002065787465726E616C2063617573652EAC
:100270000A0D005265737461727420627920627293
:100280006F776E6F7574206465746563746F722E1A
:100290000A0D00526573746172742062792077616F
:1002A000746368646F672E0A0D000A0D415652345C
:1002B000383820696E746572666163652073746195
:1002C000727465640A0D00786469616720202020DB
:1002D00020202020202053686F772063757272657C
:1002E0006E74207374617465206F662041565220CD
:1002F000494F2070696E732E0A0D007665722020BA
:100300002020202020202020202051756572792077
:1003100041565234383820696E746572666163657F
:100320002076657273696F6E2E0A0D0074726720F5
:100330005B4E5D20202020202020204973737565AE
:1003400020646576696365207472696767657220E9
:10035000284745542920746F2074686520696E739E
:100360007472756D656E742E0A0D007372712020A3
:100370002020202020202020202051756572792007
:10038000737461747573206F6620535251206C69C9
:100390006E652E20303A204E6F7420617373657243
:1003A0007465642C20313A41737365727465642EF0
:1003B0000A0D0073706F6C6C205B4E5D2020202056
:1003C00020205265616420737461747573206279B2
:1003D00074652062792073657269616C20706F6C3E
:1003E0006C696E672074686520696E737472756DD0
:1003F000656E742E0A0D0073617665636667203141
:10040000202020202020536176652063757272655C
:100410006E7420636F6E66696775726174696F6E62
:1004200020746F20454550524F4D2E0A0D007273B7
:1004300074202020202020202020202020506572A1
:10044000666F726D7320706F7765722D6F6E20729C
:1004500065736574206F662074686520636F6E74C1
:10046000726F6C6C65722E0A0D00726561645F7448
:100470006D6F5F6D73202020205175657279206348
:10048000757272656E742074696D656F757420760F
:10049000616C75652E0A0D00726561645F746D6F25
:1004A0005F6D73204E202054696D656F75742076E2
:1004B000616C75652C20696E206D696C6C69736563
:1004C000636F6E64732C20666F72207265616420A6
:1004D000616E642073706F6C6C20636F6D6D616E04
:1004E00064732E0A0D007265616420656F692020B7
:1004F0002020202020526561642066726F6D206983
:100500006E737472756D656E7420756E74696C208F
:10051000454F49206465746563746564206F72207B
:1005200074696D656F75742E0A0D007265616420C3
:100530002020202020202020202052656164206679
:10054000726F6D20696E737472756D656E7420754F
:100550006E74696C2074696D656F75742E0A0D0078
:100560006D6F646520312020202020202020204332
:100570006F6D7061746962696C697479206F6E6CFB
:100580007920636F6D6D616E64202D207765206129
:10059000726520616C77617973206120636F6E747E
:1005A000726F6C6C65722E0A0D006C6F63202020D8
:1005B000202020202020202020456E61626C6520B4
:1005C00066726F6E742070616E656C206F706572FC
:1005D0006174696F6E206F66207468652063757240
:1005E00072656E746C79206164647265737365649E
:1005F00020696E737472756D656E742E0A0D006CD1
:100600006C6F2020202020202020202020204469E2
:100610007361626C652066726F6E742070616E65C6
:100620006C206F7065726174696F6E206F662074E4
:1006300068652063757272656E746C79206164649C
:1006400072657373656420696E737472756D656E1F
:10065000742E0A0D006966632020202020202020AF
:1006600020202020497373756520696E7465726659
:1006700061636520636C6561722E0A0D0068656CAC
:100680007020202020202020202020205072696E01
:10069000742068656C702061626F757420636F6D83
:1006A0006D616E64732E0A0D00656F745F656E6117
:1006B000626C652020202020517565727920637559
:1006C0007272656E7420656E64206F66207472614C
:1006D0006E736D697373696F6E20636861726163B5
:1006E0007465722073657474696E672E0A0D0065F7
:1006F0006F745F656E61626C65204E202020456ED0
:1007000064206F66207472616E736D697373696FB4
:100710006E2063686172616374657220656E6162E8
:100720006C6520283129206F722064697361626CC6
:1007300065202830292E0A0D00656F745F6368619B
:100740007220202020202020517565727920637549
:100750007272656E7420656E64206F6620747261BB
:100760006E736D697373696F6E2063686172616324
:1007700074657220415343494920636F64652E0AB2
:100780000D00656F745F63686172204E2020202029
:1007900020456E64206F66207472616E736D69739C
:1007A00073696F6E20636861726163746572204162
:1007B0005343494920636F64652E0A0D00656F73CA
:1007C000202020202020202020202020517565720C
:1007D000792063757272656E7420454F532073657E
:1007E0007474696E672E0A0D00656F7320307C315A
:1007F0007C327C3320202020454F53207465726D5D
:10080000696E61746F72209720303A43522B4C46C8
:100810002C20313A43522C20323A4C462C20333A89
:100820004E6F6E652E0A0D00656F69202020202016
:100830002020202020202051756572792063757258
:1008400072656E7420454F492073657474696E67D4
:100850002E0A0D00656F6920307C31202020202079
:10086000202020456E61626C6520283129206F723E
:100870002064697361626C652028302920454F49E6
:100880002077697468206C61737420627974652EB6
:100890000A0D006563686F20202020202020202082
:1008A000202051756572792063757272656E7420AF
:1008B0006563686F2073657474696E672E0A0D0036
:1008C0006563686F20307C31202020202020204567
:1008D0006E61626C6520283129206F722064697313
:1008E00061626C6520283029206563686F696E67D6
:1008F000206F662063686172616374657273207231
:10090000656365697665642066726F6D2055534234
:1009100020706F72742E0A0D0064656661756C74C8
:100920002020202020202020456D756C6174657387
:10093000207468652041726475696E6F204152347D
:10094000383820636F6D6D616E642E0A0D0064652A
:1009500062756720202020202020202020517565EE
:1009600072792063757272656E7420646562756752
:10097000206C6576656C2E0A0D00646562756720D3
:100980004E2020202020202020536574206C657686
:10099000656C20666F7220646562756767696E6753
:1009A000206D657373616765732E0A0D00636C7249
:1009B0002020202020202020202020204973737513
:1009C000652064657669636520636C6561722E0AD3
:1009D0000D006175746F2020202020202020202011
:1009E0002051756572792072656164206166746555
:1009F000722077726974652073657474696E672EEE
:100A00000A0D006175746F20307C31202020202079
:100A10002020456E61626C6520283129206F72208C
:100A200064697361626C6520283029207265616495
:100A30002061667465722077726974652E0A0D00F4
:100A4000616464722020202020202020202020515A
:100A5000756572792063757272656E746C79206346
:100A60006F6E6669677572656420696E73747275FE
:100A70006D656E7420616464726573732E0A0D0077
:100A80006164647220312D333020202020202054D6
:100A9000656C6C20636F6E74726F6C6C657220771E
:100AA0006869636820696E737472756D656E742011
:100AB000746F20616464726573732E0A0D00417651
:100AC00061696C61626C6520636F6D6D616E6473EA
:100AD0002028616C6C2061726520707265636564AA
:100AE000656420627920222B2B2220616E64206EA7
:100AF0006F7420636173652073656E7369746976C2
:100B000065293A0A0D0068747470733A2F2F706368
:100B10006865726E696B686F77736B792E6769743D
:100B20006875622E696F2F4156523438382F0A0A81
:100B30000D000A0D41565234383820696E746572C2
:100B4000666163652028562573204D61792032390E
:100B500020323032322031383A35303A3331290AB6
:100B60000D004552524F520A0D0025730A0D0067C1
:100B70007069625F7265616420656E6420286572C9
:100B8000726F723D25640A0D00677069625F72655D
:100B90006164206C6F6F702073746172740A0D0051
:100BA000677069625F72656164207374617274203A
:100BB0002D20726561645F756E74696C5F656F6925
:100BC0003D25640A0D00454F493A2025780A0D005D
:100BD00054696D656F75743A2057616974696E6701
:100BE00020666F722044415620746F20676F206822
:100BF000696768207768696C652072656164696EF1
:100C0000670A0D005265616420627974653A202597
:100C100063203078253032780A0D0054696D656F95
:100C200075743A2057616974696E6720666F722027
:100C300044415620746F20676F206C6F772077686F
:100C4000696C652072656164696E670A0D00677082
:100C500069625F777269746528293A2022257322B8
:100C60000A0D00677069625F636D6428293A202568
:100C7000642062797465730A0D0054696D656F753F
:100C8000743A2057616974696E6720666F72204EEE
:100C900044414320746F20676F206869676820773C
:100CA00068696C652077726974696E670A0D004126
:100CB0007373657274696E6720454F490A0D00575A
:100CC000726974696E672064617461206279746509
:100CD0003A202563203078253032780A0D0057728B
:100CE0006974696E6720636F6D6D616E64206279EF
:100CF00074653A203078253032780A0D0054696DD9
:100D0000656F75743A2057616974696E6720666F04
:100D100072204E52464420746F20676F20686967C6
:100D20006820616E64204E44414320746F20676FD9
:100D3000206C6F77207768696C65207772697469B9
:100D40006E670A0D004E4441433A2575202F204E10
:100D50005246443A25750A0D000820080000112467
:100D60001FBECFEFD8E0DEBFCDBF84B780936C024B
:100D700014BE0FB6F894A8958091600088618093A6
:100D80006000109260000FBE11E0A0E0B1E0EEE55F
:100D9000FCE202C005900D92A431B107D9F722E020
:100DA000A4E1B1E001C01D92AC36B207E1F70E94A8
:100DB000BE0B0C942D160C9400001F920F920FB6D0
:100DC0000F9211248F939F9380911401909115019C
:100DD000019690931501809314019F918F910F902C
:100DE0000FBE0F901F901895A89584E089B90895BB
:100DF00086E80E94141187E80E94F11085E80E949D
:100E0000141114B88FEF85B985E00E94F11084E8C1
:100E10000E94CC1080E00E94CC1081E00E9414114E
:100E200082E00E94141183E00E94F11084E00E948D
:100E3000CC1083E80C9414113F924F925F926F9202
:100E40007F928F929F92AF92BF92CF92DF92EF925A
:100E5000FF920F931F93CF93DF938C01EB01442EEE
:100E6000442319F085E00E941411209739F4E80119
:100E700009900020E9F72197C01BD10B86E80E945A
:100E8000F11084E80E94F11080E00E94F11081E0EE
:100E90000E94CC1082E00E94CC1080915C018230D4
:100EA000B8F081E00E943911F82E82E00E943911D9
:100EB0001F92FF921F928F9385E49DE09F938F93E3
:100EC0000E944E130F900F900F900F900F900F9065
:100ED000E12CF12C8FEB682E8CE0782E9EED892E84
:100EE0009CE0992E33243A945E0181E0A81AB1085F
:100EF0002FEAC22E2CE0D22EEC16FD060CF0B9C063
:100F0000F80151908F01109215011092140181E0A7
:100F10000E943911811128C02091140130911501CE
:100F200080910001909101018217930710F10E94B6
:100F3000F4062091140130911501809100019091E7
:100F400001012817390718F380915C01823040F0C5
:100F50008DEF9CE09F938F930E944E130F900F9004
:100F60000E94F80681E09BC082E00E943911811145
:100F7000D3CF80915C01823020F1442059F01F9240
:100F80005F929F928F920E944E130F900F900F903E
:100F90000F9017C0852D90E00E94A612892B11F0AA
:100FA000852D01C080E21F925F921F928F937F92E6
:100FB0006F920E944E130F900F900F900F900F9012
:100FC0000F9034B8509455B8EA14FB0499F480910A
:100FD0005B01882379F041100DC084E80E94141150
:100FE00080915C01823030F0DF92CF920E944E13EC
:100FF0000F900F908BE291E00197F1F700C0000095
:1010000080E00E941411EBE2F1E03197F1F700C0AB
:101010000000109215011092140182E00E94391113
:10102000811120C02091140130911501809100019F
:101030009091010182179307A8F00E94F406209175
:101040001401309115018091000190910101281740
:10105000390718F380915C01823008F481CF8AE768
:101060009CE078CF80E00E94F110FFEFEF1AFF0ABA
:1010700043CF14B886E80E941411442019F085E08B
:101080000E94F11080E00E94CC1084E80E94CC10F5
:1010900082E00E94F11081E00E94F11080E0DF9177
:1010A000CF911F910F91FF90EF90DF90CF90BF9065
:1010B000AF909F908F907F906F905F904F903F90F8
:1010C00008950F931F93CF93DF938C01D62FC72FD3
:1010D00080915C01823060F07F936F9383E69CE0A7
:1010E0009F938F930E944E130F900F900F900F902D
:1010F00041E06D2F7C2FC801DF91CF911F910F919F
:101100000C941C0783E00E9414110E94F4068BE2E9
:1011100091E00197F1F700C0000083E00E94CC103D
:1011200083E80E94141184E18093610161E070E022
:1011300081E691E00C9461080F931F93CF93DF93A6
:10114000D82FC92F8B0180915C01823060F09F9372
:10115000DF938EE49CE09F938F930E944E130F9039
:101160000F900F900F9040E0B8018D2F9C2FDF91D2
:10117000CF911F910F910C941C070F931F93CF9346
:10118000DF938C0180E00E94CC1081E00E94F1107E
:1011900082E00E941411109215011092140180E057
:1011A0000E943911882341F12091140130911501D9
:1011B000809100019091010182179307E8F00E944D
:1011C000F406209114013091150180910001909155
:1011D00001012817390718F380915C01823040F033
:1011E0008BE19CE09F938F930E944E130F900F9082
:1011F0000E94F8068FEF77C081E00E941411C3B1FE
:10120000C09584E80E943911D82F8BE291E00197B4
:10121000F1F700C0000080915C018230C8F08C2F93
:1012200090E00E94A612892B11F08C2F01C080E261
:101230001F92CF931F928F9384E09CE09F938F9394
:101240000E944E130F900F900F900F900F900F90E1
:1012500082E00E94CC10EBE2F1E03197F1F700C0A0
:101260000000109215011092140180E00E943911C3
:10127000811120C02091140130911501809100014D
:101280009091010182179307A8F00E94F406209123
:1012900014013091150180910001909101012817EE
:1012A000390718F380915C01823008F4A1CF80EDFA
:1012B0009BE098CF82E00E94141180915C01823003
:1012C00078F081E0D11180E01F928F9386EC9BE053
:1012D0009F938F930E944E130F900F900F900F903B
:1012E000F801C0838D2FDF91CF911F910F91089549
:1012F0000F931F93CF93DF931F92CDB7DEB7082FC5
:10130000162F80915C01823060F01F920F9380EA6B
:101310009BE09F938F930E944E130F900F900F901E
:101320000F908FE5809361018FE380936201105CE1
:101330001093630163E070E081E691E00E94610830
:10134000811174C080915C01823040F089E89BE09B
:101350009F938F930E944E130F900F90002351F193
:10136000CE0101960E94BD08182F0E94F4068091BC
:101370005C01811108C060916802709169028981E5
:1013800090E00E94121311501E3F50F380916502AD
:10139000882369F16091680270916902809160010F
:1013A00090E00E94121323C01F3F09F18091640254
:1013B0008330A1F4CE0101960E94BD08182F0E942F
:1013C000F40680915C018111EFCF60916802709109
:1013D0006902898190E00E941213E6CF8981909181
:1013E0005E01891721F090915D019813E3CF8FE59D
:1013F000809361018FE38093620162E070E081E697
:1014000091E00E946108182F80915C01823060F0A9
:101410001F921F938FE69BE09F938F930E944E1322
:101420000F900F900F900F90812F01C081E00F90CF
:10143000DF91CF911F910F910895E1E6F1E09FE5D3
:1014400090839FE39183805E828363E070E0CF01AD
:101450000C94610884E00E94391191E0811190E0C0
:10146000892F08950F931F93CF93DF93CDB7DEB7E6
:101470002B970FB6F894DEBF0FBECDBF98E19093C7
:101480006101805C8093620162E070E081E691E03E
:101490000E946108182FCE010B960E94BD088F3F55
:1014A00009F411E089E180936101111124C061E028
:1014B00070E081E691E00E94610821E030E0811156
:1014C00002C020E030E0232BB1F48B8542E08E0196
:1014D0000F5F1F4FB80190E00E94F8121F930F9307
:1014E0008AE69BE09F938F930E944E130F900F907C
:1014F0000F900F9008C082E69BE09F938F930E940D
:101500004E130F900F902B960FB6F894DEBF0FBEC0
:10151000CDBFDF91CF911F910F910895E1E8F0E0E9
:1015200010821092800088EE93E09093890080935F
:1015300088008AE08083EFE6F0E080818460808329
:101540000895813091F030F08230B9F480936402D4
:101550008AE00EC0109264028DE080935D018AE003
:1015600080935E0110925F010895809364028DE084
:1015700080935D0110925E01089583E08093640280
:1015800010925D01089580E191E09F938F9382E333
:101590009BE09F938F930E944E1386E09BE09F9366
:1015A0008F930E944E138EEB9AE09F938F930E942D
:1015B0004E1380E89AE09F938F930E944E1380E42D
:1015C0009AE09F938F930E944E1383E09AE09F933B
:1015D0008F930E944E1382ED99E09F938F930E9408
:1015E0004E138DEA99E09F938F930E944E138AE7E2
:1015F00099E09F938F930E944E138EE499E09F93FE
:101600008F930E944E1389E199E09F938F930E94DC
:101610004E1380EC98E09F938F930E944E1383E9C2
:1016200098E09F938F930E944E1384E598E09F93D8
:101630008F930E944E1388E298E09F938F930E94AD
:101640004E138DB79EB780960FB6F8949EBF0FBE0F
:101650008DBF89EE97E09F938F930E944E138DEB81
:1016600097E09F938F930E944E1382E897E09F9399
:101670008F930E944E1389E397E09F938F930E946C
:101680004E138FEE96E09F938F930E944E1389EA3C
:1016900096E09F938F930E944E138DE796E09F9361
:1016A0008F930E944E1385E596E09F938F930E943F
:1016B0004E138FEF95E09F938F930E944E138AEA0B
:1016C00095E09F938F930E944E1380E695E09F9341
:1016D0008F930E944E138BE295E09F938F930E940D
:1016E0004E1386EE94E09F938F930E944E1388E9E9
:1016F00094E09F938F930E944E138AE694E09F9309
:101700008F930E944E138EE294E09F938F930E94DA
:101710004E138DB79EB780960FB6F8949EBF0FBE3E
:101720008DBF87EF93E09F938F930E944E1383EBBF
:1017300093E09F938F930E944E138BE693E09F93C9
:101740008F930E944E138CE293E09F938F930E949D
:101750004E138BEF92E09F938F930E944E1387EC72
:1017600092E09F938F930E944E138DB79EB70C9675
:101770000FB6F8949EBF0FBE8DBF0895CF93DF9331
:10178000CDB7DEB72A970FB6F894DEBF0FBECDBF38
:1017900082E80E94F1102FEF81EE94E0215080400A
:1017A0009040E1F700C000000E948E0A9EE088E1B0
:1017B0000FB6F894A895809360000FBE90936000D8
:1017C00078948CE090E00E94A21182E091E09093E6
:1017D0006902809368028AEA92E09F938F930E9445
:1017E0004E1380E090E00E94DC150F900F908A3A33
:1017F000F1F582E090E00E94DC15582E83E090E045
:101800000E94DC158093600184E090E00E94DC156A
:1018100091E0811101C090E09093650285E090E035
:101820000E94DC150E94A10A86E090E00E94DC156F
:1018300091E0811101C090E090935B0187E090E01E
:101840000E94DC1533243394811101C0312C80E1D6
:1018500090E00E94DC1580935C0181E190E00E94A1
:10186000DC1544244394811134C0412C32C06AEA0F
:1018700080E090E00E94E41561E082E090E00E9448
:10188000E4156DE083E090E00E94E41560E084E000
:1018900090E00E94E41563E085E090E00E94E4158A
:1018A00061E086E090E00E94E41561E087E090E06E
:1018B0000E94E41560E080E190E00E94E41561E0A0
:1018C00081E190E00E94E41533243394442443944E
:1018D000512C0E94F4062FEF81EE94E021508040BD
:1018E0009040E1F700C000000E94F8060E948208C4
:1018F0000E94F4062FEF81EE94E02150804090404A
:10190000E1F700C0000080915C01882381F18091A3
:101910006C0283FF08C083E992E09F938F930E943B
:101920004E130F900F9080916C0282FF08C083E7E6
:1019300092E09F938F930E944E130F900F9080918F
:101940006C0281FF08C086E592E09F938F930E940E
:101950004E130F900F9080916C0280FF08C08FE3B0
:1019600092E09F938F930E944E130F900F9087E900
:10197000682E80E0782E0CE810E096ECE92E90E0DE
:10198000F92E23ECC22E20E0D22E32EFA32E30E02F
:10199000B32E47EF842E40E0942E442D6DEF70E07F
:1019A00086E691E00E940212442031F08AE00E9413
:1019B000D9118DE00E94D911809166018B3209F016
:1019C00094C3809167018B3209F092C344E050E0E8
:1019D0006AE372E088E691E00E94AD12892B11F56E
:1019E00080916C01811105C01F925F9285E392E0A6
:1019F0002BC0803291F68DE691E00E945F129C012F
:101A0000215031092E31310518F088E192E008C0EB
:101A1000582E80915C01882309F4BFCF83E192E0C6
:101A20009F93B0C344E050E06EE072E088E691E03E
:101A30000E94AD12892B29F580916C0181110DC096
:101A40001F923F9289E092E09F938F930E944E13E2
:101A50000F900F900F900F90A0CF803209F09DCF84
:101A60008DE691E00E945F1233243394892B09F4B0
:101A7000312C80915C01882309F48FCF84E092E0BF
:101A8000CFCF43E050E060E072E088E691E00E9452
:101A9000AD12892B11F5852D90E00E941D0A94E06E
:101AA0009093610181110BC061E070E081E691E0EB
:101AB0000E94610891E0811103C090E001C091E0B3
:101AC00090FF03C088EF91E0ABCF80915C01882349
:101AD00009F463CF83EF91E0A3CF45E050E06DEED2
:101AE00071E088E691E00E94AD12892BD1F48091DB
:101AF0006D01811107C080915C011F928F9388EE68
:101B000091E0A2CF803209F048CF8EE691E00E94AA
:101B10005F1280935C01882309F43FCF83EE91E04C
:101B20007FCF47E050E06BED71E088E691E00E94E6
:101B3000AD12892BB1F410926502109260011092DF
:101B40005B011092640280E00E94A10A80EB94E0A5
:101B5000909301018093000110925C01312C412C83
:101B60001CCF44E050E066ED71E088E691E00E9411
:101B7000AD12892BE9F480916C01811105C01F928F
:101B80004F9281ED91E060CF803209F006CF8DE673
:101B900091E00E945F1244244394892B09F4412C64
:101BA00080915C01882309F4F8CE8CEC91E038CF69
:101BB00043E050E068EC71E088E691E00E94AD12ED
:101BC000892B01F580916B01811107C080915B0128
:101BD0001F928F9383EC91E037CF803209F0DDCEF6
:101BE0008CE691E00E945F1221E0892B09F420E04D
:101BF00020935B0180915C01882309F4CECE8EEBAB
:101C000091E00ECF43E050E06AEB71E088E691E0AE
:101C10000E94AD12892BE1F480916B01811107C004
:101C2000809164021F928F9385EB91E00DCF8032FB
:101C300009F0B3CE8CE691E00E945F120E94A10AE7
:101C400080915C01882309F4A8CE80EB91E0E8CE76
:101C500048E050E067EA71E088E691E00E94AD124A
:101C6000892BE1F480917001811107C0809160019E
:101C70001F928F9382EA91E0E7CE803209F08DCEF9
:101C800081E791E00E945F128093600180915C0186
:101C9000882309F482CE8DE991E0C2CE4AE050E07B
:101CA00062E971E088E691E00E94AD12892B01F5AE
:101CB00080917201811107C0809165021F928F93FC
:101CC0008DE891E0C1CE803209F067CE83E791E0E4
:101CD0000E945F1221E0892B09F420E02093650225
:101CE00080915C01882309F458CE88E891E098CE71
:101CF00044E050E063E871E088E691E00E94AD12B4
:101D0000892B19F40E94C30A48CE43E050E06FE7E4
:101D100071E088E691E00E94AD12892BA1F483E086
:101D20000E9414118BE291E00197F1F700C00000CE
:101D300083E00E94CC1080915C01882309F42DCEB1
:101D40008AE791E06DCE43E050E066E771E088E617
:101D500091E00E94AD12892B11F5852D90E00E9433
:101D60001D0A91E19093610181110BC061E070E067
:101D700081E691E00E94610891E0811103C090E04A
:101D800001C091E090FF03C08EE691E049CE8091C2
:101D90005C01882309F401CE89E691E041CE43E05D
:101DA00050E065E671E088E691E00E94AD12892B73
:101DB00011F5852D90E00E941D0A91E0909361013C
:101DC00081110BC061E070E081E691E00E94610842
:101DD00091E0811103C090E001C091E090FF03C049
:101DE0008DE591E01DCE80915C01882309F4D5CD6D
:101DF00088E591E015CE44E050E063E571E088E6C7
:101E000091E00E94AD12892BD9F480916C0181116F
:101E100003C08FE491E004CE803209F0BECD8DE6A0
:101E200091E00E945F12019741F480915C01882348
:101E300009F4B3CD8AE491E0F3CD82E491E0F0CDF2
:101E40004BE050E066E371E088E691E00E94AD125D
:101E5000892B01F580917301811109C080910101E5
:101E60008F93809100018F9381E391E0EDCD8032DB
:101E700009F093CD84E791E00E947D1270930101F7
:101E80006093000180915C01882309F486CD8CE287
:101E900091E0C6CD44E050E067E271E088E691E071
:101EA0000E94AD12892B71F480916C01811102C0E6
:101EB000652D4DC180916D01853609F06ECD652D82
:101EC00081E045C143E050E063E271E088E691E0E3
:101ED0000E94AD12892B09F4FFCF47E050E06BE17F
:101EE00071E088E691E00E94AD12892B09F045C0AF
:101EF00080916F01811103C087E191E091CD803223
:101F000009F04BCD80E791E00E945F12019769F5DF
:101F1000652D82E090E00E94E4156091600183E00D
:101F200090E00E94E4156091650284E090E00E94D8
:101F3000E4156091640285E090E00E94E4156091F0
:101F40005B0186E090E00E94E415632D87E090E05D
:101F50000E94E41560915C0180E190E00E94E4152C
:101F6000642D81E190E00E94E41580915C0188235A
:101F700009F413CD82E191E053CD45E050E06CE0EF
:101F800071E088E691E00E94AD12892B89F480917E
:101F90006D01811103C0852D90E007C0803209F0EA
:101FA000FCCC8EE691E00E945F120E94320AF5CCD2
:101FB00043E050E068E071E088E691E00E94AD12F5
:101FC000892B39F40E942A0A1F928F9383E091E0B3
:101FD0003BCD43E050E06FEF70E088E691E00E9477
:101FE000AD12892B51F5852D90E020916B012032A7
:101FF00021F48CE691E00E945F120E941D0A98E095
:102000009093610181110BC061E070E081E691E085
:102010000E94610891E0811103C090E001C091E04D
:1020200090FF03C09F928F92AEC080915C01882385
:1020300009F4B3CCBF92AF92A6C043E050E06EEE7D
:1020400070E088E691E00E94AD12892B49F4FF927E
:10205000EF920E944E13DF92CF920E944E13F8CC63
:1020600045E050E06DEB70E088E691E00E94AD1233
:10207000892BC1F58DEA90E09F938F930E944E13B8
:1020800083B142E0BE016F5F7F4F90E00E94F81283
:102090009F938F9382EA90E09F938F930E944E13B9
:1020A00086B142E0BE016F5F7F4F90E00E94F81260
:1020B0009F938F937F926F920E944E1389B142E05B
:1020C000BE016F5F7F4F90E00E94F8129F938F9345
:1020D0001F930F930E944E130FB6F894DEBF0FBEEE
:1020E000CDBF5BCC85E790E04CC0882309F455CC8C
:1020F000852D90E00E941D0A282E80916402833075
:1021000031F06DE571E086E691E00E94C512211084
:102110000BC060E070E086E691E00E949C0891E0D0
:10212000811103C090E001C091E0332009F435CC67
:102130009170292E6FE370E086E691E00E94D01244
:10214000892B41F0211024C0652D80915B010E94F4
:10215000780923CC442009F420CC222059F08DE6C4
:1021600090E09F938F930E944E130F900F90442402
:10217000439413CC80915C01882309F40ECC88E64B
:1021800090E09F938F930E944E130F900F9005CC79
:10219000442009F402CCE3CF87FF11C03AB1282FC5
:1021A0002F7781E090E001C0880F2A95EAF7982FF9
:1021B000909593239AB99BB1892B8BB9089547B118
:1021C00021E030E0B90102C0660F771F8A95E2F77F
:1021D000CB01962F9095942397B998B1892B88B904
:1021E000089587FF10C03AB1282F2F7781E090E043
:1021F00001C0880F2A95EAF7932F982B9AB99BB1C3
:10220000892B8BB9089547B121E030E0B90102C0B4
:10221000660F771F8A95E2F7CB01942F982B97B919
:1022200098B1892B88B9089587FF11C03AB1282F3A
:102230002F7781E090E001C0880F2A95EAF7932F6D
:10224000982B9AB99BB1809589238BB9089547B192
:1022500021E030E0B90102C0660F771F8A95E2F7EE
:10226000CB01942F982B97B998B18095892388B981
:10227000089587FF04C029B130E08F7702C026B1EE
:1022800030E0A90102C0559547958A95E2F7CA0149
:10229000817008951F920F920FB60F9211242F9301
:1022A0008F939F93EF93FF938091C0009091C6000E
:1022B0008C71E0911801EF5FEF7120911701E21727
:1022C00039F0E0931801F0E0E55EFE4F908301C025
:1022D00082E090911601892B80931601FF91EF9176
:1022E0009F918F912F910F900FBE0F901F90189577
:1022F0001F920F920FB60F9211248F939F93EF931B
:10230000FF9390911A0180911901981769F0E0915B
:102310001901EF5FEF71E0931901F0E0E55CFE4F0A
:1023200080818093C60005C08091C1008F7D80931D
:10233000C100FF91EF919F918F910F900FBE0F9071
:102340001F90189510921A011092190110921801FD
:102350001092170197FF03C022E02093C0009078ED
:102360009093C5008093C40088E98093C10086E003
:102370008093C200089590911801809117019817D9
:10238000A9F0909117019F5F9F71E92FF0E0E55E42
:10239000FE4F208180911601909317011092160133
:1023A00090E0982F8827820F911D089580E091E09A
:1023B000089590911A019F5F9F71209119019217C2
:1023C000E1F3E92FF0E0E55CFE4F808390931A0182
:1023D0008091C10080628093C1000895CF93DF9304
:1023E000FC018491EF012196882321F00E94D911EC
:1023F000FE01F7CFDF91CF9108950E94D91180E0BF
:1024000090E00895AF92BF92CF92DF92EF92FF9249
:102410000F931F93CF93DF936C015B01F42EC0E009
:10242000D0E00E94BB11E82E082F192F0E94F4065D
:10243000011581E01807A9F30D30110589F00A3064
:10244000110571F008301105D1F41C161D06D4F4E5
:102450002197FF2079F089E59DE00E94EE110AC0E6
:1024600000E010E0CE010196CC0DDD1D0883012BAC
:10247000D9F0EC01CA15DB05A4F2CE0115C0F110AC
:1024800007C0F0CFFF20B1F388E00E94D911F2CF4E
:102490000115110539F38E2D0E94D911F601EC0FAB
:1024A000FD1FE0822196E6CFDF91CF911F910F9122
:1024B000FF90EF90DF90CF90BF90AF900895FC0118
:1024C00088279927E89421912032E9F3293010F0E8
:1024D0002E30C8F32B3241F02D3239F4689404C009
:1024E0000E94F012820F911D219120532A30C0F3D7
:1024F0001EF4909581959F4F08951F93FC01992795
:102500008827BC01E89411911032E9F3193010F0DA
:102510001E30C8F31B3251F01D3249F4689406C0D6
:102520000E94DB12610F711D811D911D11911053CD
:102530001A30B0F33EF490958095709561957F4F79
:102540008F4F9F4F1F910895803209F091110C9485
:10255000551580528F55D8F70895FB01DC01415085
:10256000504088F08D9181341CF08B350CF4805EE6
:10257000659161341CF06B350CF4605E861B611153
:1025800071F3990B0895881BFCCFFB01DC010D90C2
:102590000020E9F7119701900D920020E1F70895CE
:1025A000FC018191861721F08823D9F79927089596
:1025B0003197CF010895592F482F372F262F660FB7
:1025C000771F881F991F660F771F881F991F620F3B
:1025D000731F841F951F660F771F881F991F08950B
:1025E0007AE0979F902D879F802D910D112408955B
:1025F000BB27FB015527AA27880F991FAA1FA417DD
:1026000010F0A41B83955051B9F7A05DAA3308F0D0
:10261000A95DA193009779F7B111B1931192CB0104
:102620000C946E150F931F93CF93DF93FB012381BF
:1026300021FD03C08FEF9FEF2CC022FF16C0468103
:102640005781248135814217530744F4A081B18119
:102650009D012F5F3F4F318320838C9326813781EB
:102660002F5F3F4F3783268314C08B01EC01FB01A2
:102670000084F185E02D0995892BE1F6D8011696A5
:102680008D919C911797019617969C938E93169710
:10269000CE01DF91CF911F910F910895A0E0B0E09E
:1026A000E4E5F3E10C940416AE01495F5F4FDA01F3
:1026B0006D917D91AD0106E612E0F8018281938172
:1026C000DC0113962C911397286013962C930E948B
:1026D0007413D8011296ED91FC9113972381277FF3
:1026E0002383E4E00C942016ABE0B0E0EAE7F3E1EA
:1026F0000C94F6156C017B018A01FC01178216828D
:10270000838181FFCCC1CE0101963C01F60193810A
:10271000F70193FD859193FF81917F01882309F44F
:10272000BAC1853239F493FD859193FF81917F0180
:10273000853229F4B60190E00E941213E7CF912C64
:10274000212C312CFFE1F315D8F08B3279F038F4DD
:10275000803279F08332A1F4232D20611DC08D32A7
:1027600061F0803369F4232D216016C0832D8260CF
:10277000382EE32DE4603E2E2AC0F32DF8601DC0F4
:1027800037FC2DC020ED280F2A3040F08E32B9F4EE
:1027900036FC81C1232D2064322E19C036FE06C0BE
:1027A0008AE0989E200D1124922E11C0EAE02E9E00
:1027B000200D1124222EF32DF0623F2E08C08C36FE
:1027C00021F4832D8068382E02C0883641F4F70149
:1027D00093FD859193FF81917F018111B3CF982F54
:1027E0009F7D9554933028F40C5F1F4F9FE399838E
:1027F0000DC0833631F0833771F0833509F059C04D
:1028000021C0F801808189830E5F1F4F8824839443
:10281000912C530113C02801F2E04F0E511CF80116
:10282000A080B18036FE03C0692D70E002C06FEF5A
:102830007FEFC5010E9463154C018201F32DFF77E4
:102840003F2E16C0280122E0420E511CF801A08044
:10285000B18036FE03C0692D70E002C06FEF7FEFDC
:10286000C5010E9458154C01F32DF0683F2E8201DE
:1028700033FC1BC0822D90E088169906B0F4B60197
:1028800080E290E00E9412132A94F4CFF50137FC05
:10289000859137FE81915F01B60190E00E9412138D
:1028A00021102A9421E0821A91088114910471F771
:1028B000E8C0843611F0893641F5F80137FE07C0CB
:1028C00060817181828193810C5F1F4F08C060819C
:1028D0007181072E000C880B990B0E5F1F4FF32D93
:1028E000FF763F2E97FF09C0909580957095619572
:1028F0007F4F8F4F9F4FF0683F2E2AE030E0A301BB
:102900000E947E15882E861845C0853731F4232D08
:102910002F7EB22E2AE030E025C0932D997FB92E6C
:102920008F36C1F018F4883579F0B5C0803719F0CA
:10293000883721F0B0C0E92FE061BE2EB4FE0DC093
:10294000FB2DF460BF2E09C034FE0AC0292F26607B
:10295000B22E06C028E030E005C020E130E002C021
:1029600020E132E0F801B7FE07C060817181828109
:1029700093810C5F1F4F06C06081718180E090E001
:102980000E5F1F4FA3010E947E15882E8618FB2D17
:10299000FF773F2E36FE0DC0232D2E7FA22E8914E9
:1029A00058F434FE0BC032FC09C0832D8E7EA82E55
:1029B00005C0B82CA32C03C0B82C01C0B92CA4FEB0
:1029C0000FC0FE01E80DF11D8081803321F49A2DA6
:1029D000997EA92E09C0A2FE06C0B394B39404C088
:1029E0008A2D867809F0B394A3FC11C0A0FE06C01E
:1029F000B21488F4280C922C9B180EC0B21460F408
:102A0000B60180E290E00E941213B394F7CFB214A3
:102A100018F42B1802C0982C212CA4FE10C0B6016B
:102A200080E390E00E941213A2FE17C0A1FC03C035
:102A300088E790E002C088E590E0B6010CC08A2DDE
:102A4000867859F0A1FE02C08BE201C080E2A7FCAB
:102A50008DE2B60190E00E941213891438F4B60199
:102A600080E390E00E9412139A94F7CF8A94F301C6
:102A7000E80DF11D8081B60190E00E9412138110D3
:102A8000F5CF222009F442CEB60180E290E00E9408
:102A900012132A94F6CFF6018681978102C08FEF38
:102AA0009FEF2B96E2E10C94121699278827089540
:102AB000FC010590615070400110D8F78095909509
:102AC0008E0F9F1F0895FC0161507040019001100E
:102AD000D8F7809590958E0F9F1F0895DC01FC011B
:102AE000672F71917723E1F7329704C07C916D9342
:102AF00070836291AE17BF07C8F30895FA01AA2741
:102B0000283051F1203181F1E8946F936E7F6E5F30
:102B10007F4F8F4F9F4FAF4FB1E03ED0B4E03CD0DE
:102B2000670F781F891F9A1FA11D680F791F8A1FC1
:102B3000911DA11D6A0F711D811D911DA11D20D028
:102B400009F468943F912AE0269F11243019305DE2
:102B50003193DEF6CF010895462F4770405D4193D3
:102B6000B3E00FD0C9F7F6CF462F4F70405D4A3320
:102B700018F0495D31FD4052419302D0A9F7EACFE8
:102B8000B4E0A6959795879577956795BA95C9F717
:102B900000976105710508959B01AC010A2E06940A
:102BA0005795479537952795BA95C9F7620F731FC3
:102BB000841F951FA01D0895F999FECF92BD81BD78
:102BC000F89A992780B50895262FF999FECF92BDDE
:102BD00081BDF89A019700B4021639F01FBA20BDE2
:102BE0000FB6F894FA9AF99A0FBE08952F923F9271
:102BF0004F925F926F927F928F929F92AF92BF920D
:102C0000CF92DF92EF92FF920F931F93CF93DF93B8
:102C1000CDB7DEB7CA1BDB0B0FB6F894DEBF0FBE15
:102C2000CDBF09942A88398848885F846E847D8462
:102C30008C849B84AA84B984C884DF80EE80FD8064
:102C40000C811B81AA81B981CE0FD11D0FB6F894DA
:0E2C5000DEBF0FBECDBFED010895F894FFCF9B
:102C5E00E8030000000200000000FD11000000006B
:042C6E00312E3100D2
:00000001FF
